{"abi":[{"type":"constructor","inputs":[{"name":"domainSeparator_","type":"bytes32","internalType":"bytes32"}],"stateMutability":"nonpayable"},{"type":"function","name":"PERMIT_TYPEHASH","inputs":[],"outputs":[{"name":"","type":"bytes32","internalType":"bytes32"}],"stateMutability":"view"},{"type":"function","name":"getTypedDataHash","inputs":[{"name":"p","type":"tuple","internalType":"struct SigUtils.Permit","components":[{"name":"owner","type":"address","internalType":"address"},{"name":"spender","type":"address","internalType":"address"},{"name":"value","type":"uint256","internalType":"uint256"},{"name":"nonce","type":"uint256","internalType":"uint256"},{"name":"DEADLINE","type":"uint256","internalType":"uint256"}]}],"outputs":[{"name":"","type":"bytes32","internalType":"bytes32"}],"stateMutability":"view"}],"bytecode":{"object":"0x6080604052348015600e575f5ffd5b50604051610281380380610281833981016040819052602b916031565b5f556047565b5f602082840312156040575f5ffd5b5051919050565b61022d806100545f395ff3fe608060405234801561000f575f5ffd5b5060043610610034575f3560e01c806330adf81f14610038578063ba20b89d14610071575b5f5ffd5b61005f7f5c79bc6152f76dfc4667fcb69d9b2a38dc615dc94bcdf0ab4b06c695f55449d581565b60405190815260200160405180910390f35b61005f61007f366004610170565b5f805482516020808501516040808701516060880151608089015192516100fb967f5c79bc6152f76dfc4667fcb69d9b2a38dc615dc94bcdf0ab4b06c695f55449d59690959491019586526001600160a01b0394851660208701529290931660408501526060840152608083019190915260a082015260c00190565b6040516020818303038152906040528051906020012060405160200161013892919061190160f01b81526002810192909252602282015260420190565b604051602081830303815290604052805190602001209050919050565b80356001600160a01b038116811461016b575f5ffd5b919050565b5f60a0828403128015610181575f5ffd5b5060405160a0810167ffffffffffffffff811182821017156101b157634e487b7160e01b5f52604160045260245ffd5b6040526101bd83610155565b81526101cb60208401610155565b60208201526040838101359082015260608084013590820152608092830135928101929092525091905056fea26469706673582212206dfa73b9fb4e498bf44dddde78c4c777997e778d4dc8e60ff043ab1a2636923964736f6c634300081e0033","linkReferences":{}},"methodIdentifiers":{"PERMIT_TYPEHASH()":"30adf81f","getTypedDataHash((address,address,uint256,uint256,uint256))":"ba20b89d"},"id":45}