{"abi":[{"type":"constructor","inputs":[{"name":"_payer","type":"address","internalType":"address"},{"name":"_payee","type":"address","internalType":"address"},{"name":"_deadline","type":"uint64","internalType":"uint64"}],"stateMutability":"nonpayable"},{"type":"function","name":"amount","inputs":[],"outputs":[{"name":"","type":"uint256","internalType":"uint256"}],"stateMutability":"view"},{"type":"function","name":"approve","inputs":[],"outputs":[],"stateMutability":"nonpayable"},{"type":"function","name":"approved","inputs":[],"outputs":[{"name":"","type":"bool","internalType":"bool"}],"stateMutability":"view"},{"type":"function","name":"deadline","inputs":[],"outputs":[{"name":"","type":"uint64","internalType":"uint64"}],"stateMutability":"view"},{"type":"function","name":"deposit","inputs":[],"outputs":[],"stateMutability":"payable"},{"type":"function","name":"funded","inputs":[],"outputs":[{"name":"","type":"bool","internalType":"bool"}],"stateMutability":"view"},{"type":"function","name":"payee","inputs":[],"outputs":[{"name":"","type":"address","internalType":"address"}],"stateMutability":"view"},{"type":"function","name":"payer","inputs":[],"outputs":[{"name":"","type":"address","internalType":"address"}],"stateMutability":"view"},{"type":"function","name":"refund","inputs":[],"outputs":[],"stateMutability":"nonpayable"},{"type":"function","name":"withdraw","inputs":[],"outputs":[],"stateMutability":"nonpayable"},{"type":"event","name":"Approved","inputs":[{"name":"by","type":"address","indexed":true,"internalType":"address"}],"anonymous":false},{"type":"event","name":"Deposited","inputs":[{"name":"from","type":"address","indexed":true,"internalType":"address"},{"name":"amount","type":"uint256","indexed":false,"internalType":"uint256"}],"anonymous":false},{"type":"event","name":"Refunded","inputs":[{"name":"to","type":"address","indexed":true,"internalType":"address"},{"name":"amount","type":"uint256","indexed":false,"internalType":"uint256"}],"anonymous":false},{"type":"event","name":"Withdrawn","inputs":[{"name":"to","type":"address","indexed":true,"internalType":"address"},{"name":"amount","type":"uint256","indexed":false,"internalType":"uint256"}],"anonymous":false},{"type":"error","name":"AlreadyApproved","inputs":[]},{"type":"error","name":"AlreadyFunded","inputs":[]},{"type":"error","name":"DeadlineNotReached","inputs":[]},{"type":"error","name":"DeadlinePassed","inputs":[]},{"type":"error","name":"NotApproved","inputs":[]},{"type":"error","name":"NotFunded","inputs":[]},{"type":"error","name":"NotPayee","inputs":[]},{"type":"error","name":"NotPayer","inputs":[]},{"type":"error","name":"ReentrancyGuardReentrantCall","inputs":[]},{"type":"error","name":"ZeroAmount","inputs":[]}],"bytecode":{"object":"0x60e060405234801561000f575f5ffd5b50604051610a08380380610a0883398101604081905261002e916100cd565b60015f556001600160a01b0383161580159061005257506001600160a01b03821615155b61008e5760405162461bcd60e51b81526020600482015260096024820152683d32b9379030b2323960b91b604482015260640160405180910390fd5b6001600160a01b03928316608052911660a0526001600160401b031660c05261011d565b80516001600160a01b03811681146100c8575f5ffd5b919050565b5f5f5f606084860312156100df575f5ffd5b6100e8846100b2565b92506100f6602085016100b2565b60408501519092506001600160401b0381168114610112575f5ffd5b809150509250925092565b60805160a05160c0516108756101935f395f81816101380152818161036b0152818161058f015261078401525f81816101cf015281816102f5015281816103d2015261048201525f818160a40152818161021d01528181610503015281816105f30152818161069c015261070001526108755ff3fe60806040526004361061008f575f3560e01c8063590e1ae311610057578063590e1ae314610187578063aa8c217c1461019b578063ae90b213146101be578063d0e30db0146101f1578063f3a504f2146101f9575f5ffd5b8063123119cd1461009357806312424e3f146100e357806319d40b08146100f957806329dcb0cf146101275780633ccfd60b14610173575b5f5ffd5b34801561009e575f5ffd5b506100c67f000000000000000000000000000000000000000000000000000000000000000081565b6040516001600160a01b0390911681526020015b60405180910390f35b3480156100ee575f5ffd5b506100f7610212565b005b348015610104575f5ffd5b5060025461011790610100900460ff1681565b60405190151581526020016100da565b348015610132575f5ffd5b5061015a7f000000000000000000000000000000000000000000000000000000000000000081565b60405167ffffffffffffffff90911681526020016100da565b34801561017e575f5ffd5b506100f76102e2565b348015610192575f5ffd5b506100f76104f0565b3480156101a6575f5ffd5b506101b060015481565b6040519081526020016100da565b3480156101c9575f5ffd5b506100c67f000000000000000000000000000000000000000000000000000000000000000081565b6100f76106f5565b348015610204575f5ffd5b506002546101179060ff1681565b336001600160a01b037f0000000000000000000000000000000000000000000000000000000000000000161461025b57604051631435e35760e01b815260040160405180910390fd5b60025460ff1661027e57604051636af784dd60e11b815260040160405180910390fd5b600254610100900460ff16156102a75760405163080fc0bd60e11b815260040160405180910390fd5b6002805461ff00191661010017905560405133907f5d91bd0cecc45fef102af61de92c5462fadc884a5ce9d21c15e8a85198f2349e905f90a2565b6102ea610817565b336001600160a01b037f00000000000000000000000000000000000000000000000000000000000000001614610333576040516356cab67b60e01b815260040160405180910390fd5b60025460ff1661035657604051636af784dd60e11b815260040160405180910390fd5b600254610100900460ff1615801561039857507f000000000000000000000000000000000000000000000000000000000000000067ffffffffffffffff164211155b156103b65760405163c19f17a960e01b815260040160405180910390fd5b600180545f918290556002805461ffff191690556040519091907f00000000000000000000000000000000000000000000000000000000000000006001600160a01b03169083908381818185875af1925050503d805f8114610433576040519150601f19603f3d011682016040523d82523d5f602084013e610438565b606091505b50509050806104805760405162461bcd60e51b815260206004820152600f60248201526e1d1c985b9cd9995c8819985a5b1959608a1b60448201526064015b60405180910390fd5b7f00000000000000000000000000000000000000000000000000000000000000006001600160a01b03167f7084f5476618d8e60b11ef0d7d3f06914655adb8793e28ff7f018d4c76d505d5836040516104db91815260200190565b60405180910390a250506104ee60015f55565b565b6104f8610817565b336001600160a01b037f0000000000000000000000000000000000000000000000000000000000000000161461054157604051631435e35760e01b815260040160405180910390fd5b60025460ff1661056457604051636af784dd60e11b815260040160405180910390fd5b600254610100900460ff161561058d5760405163080fc0bd60e11b815260040160405180910390fd5b7f000000000000000000000000000000000000000000000000000000000000000067ffffffffffffffff164210156105d857604051633376277360e11b815260040160405180910390fd5b600180545f918290556002805460ff191690556040519091907f00000000000000000000000000000000000000000000000000000000000000006001600160a01b03169083908381818185875af1925050503d805f8114610654576040519150601f19603f3d011682016040523d82523d5f602084013e610659565b606091505b505090508061069a5760405162461bcd60e51b815260206004820152600d60248201526c1c99599d5b990819985a5b1959609a1b6044820152606401610477565b7f00000000000000000000000000000000000000000000000000000000000000006001600160a01b03167fd7dee2702d63ad89917b6a4da9981c90c4d24f8c2bdfd64c604ecae57d8d0651836040516104db91815260200190565b336001600160a01b037f0000000000000000000000000000000000000000000000000000000000000000161461073e57604051631435e35760e01b815260040160405180910390fd5b345f0361075e57604051631f2a200560e01b815260040160405180910390fd5b60025460ff161561078257604051635adf638760e01b815260040160405180910390fd5b7f000000000000000000000000000000000000000000000000000000000000000067ffffffffffffffff164211156107cd5760405163387b2e5560e11b815260040160405180910390fd5b3460018181556002805460ff1916909117905560405190815233907f2da466a7b24304f47e87fa2e1e5a81b9831ce54fec19055ce277ca2f39ba42c49060200160405180910390a2565b60025f540361083957604051633ee5aeb560e01b815260040160405180910390fd5b60025f5556fea26469706673582212206084977ba72b813111e154445624d1763d2140e980bc70a1ca386889a0a5254364736f6c634300081e0033","linkReferences":{}},"methodIdentifiers":{"amount()":"aa8c217c","approve()":"12424e3f","approved()":"19d40b08","deadline()":"29dcb0cf","deposit()":"d0e30db0","funded()":"f3a504f2","payee()":"ae90b213","payer()":"123119cd","refund()":"590e1ae3","withdraw()":"3ccfd60b"},"id":0}