{"abi":[{"type":"constructor","inputs":[{"name":"name_","type":"string","internalType":"string"},{"name":"symbol_","type":"string","internalType":"string"},{"name":"initialSupply","type":"uint256","internalType":"uint256"},{"name":"initialOwner","type":"address","internalType":"address"}],"stateMutability":"nonpayable"},{"type":"function","name":"DOMAIN_SEPARATOR","inputs":[],"outputs":[{"name":"","type":"bytes32","internalType":"bytes32"}],"stateMutability":"view"},{"type":"function","name":"allowance","inputs":[{"name":"owner","type":"address","internalType":"address"},{"name":"spender","type":"address","internalType":"address"}],"outputs":[{"name":"","type":"uint256","internalType":"uint256"}],"stateMutability":"view"},{"type":"function","name":"approve","inputs":[{"name":"spender","type":"address","internalType":"address"},{"name":"value","type":"uint256","internalType":"uint256"}],"outputs":[{"name":"","type":"bool","internalType":"bool"}],"stateMutability":"nonpayable"},{"type":"function","name":"balanceOf","inputs":[{"name":"account","type":"address","internalType":"address"}],"outputs":[{"name":"","type":"uint256","internalType":"uint256"}],"stateMutability":"view"},{"type":"function","name":"decimals","inputs":[],"outputs":[{"name":"","type":"uint8","internalType":"uint8"}],"stateMutability":"view"},{"type":"function","name":"eip712Domain","inputs":[],"outputs":[{"name":"fields","type":"bytes1","internalType":"bytes1"},{"name":"name","type":"string","internalType":"string"},{"name":"version","type":"string","internalType":"string"},{"name":"chainId","type":"uint256","internalType":"uint256"},{"name":"verifyingContract","type":"address","internalType":"address"},{"name":"salt","type":"bytes32","internalType":"bytes32"},{"name":"extensions","type":"uint256[]","internalType":"uint256[]"}],"stateMutability":"view"},{"type":"function","name":"mint","inputs":[{"name":"to","type":"address","internalType":"address"},{"name":"amount","type":"uint256","internalType":"uint256"}],"outputs":[],"stateMutability":"nonpayable"},{"type":"function","name":"name","inputs":[],"outputs":[{"name":"","type":"string","internalType":"string"}],"stateMutability":"view"},{"type":"function","name":"nonces","inputs":[{"name":"owner","type":"address","internalType":"address"}],"outputs":[{"name":"","type":"uint256","internalType":"uint256"}],"stateMutability":"view"},{"type":"function","name":"owner","inputs":[],"outputs":[{"name":"","type":"address","internalType":"address"}],"stateMutability":"view"},{"type":"function","name":"permit","inputs":[{"name":"owner","type":"address","internalType":"address"},{"name":"spender","type":"address","internalType":"address"},{"name":"value","type":"uint256","internalType":"uint256"},{"name":"deadline","type":"uint256","internalType":"uint256"},{"name":"v","type":"uint8","internalType":"uint8"},{"name":"r","type":"bytes32","internalType":"bytes32"},{"name":"s","type":"bytes32","internalType":"bytes32"}],"outputs":[],"stateMutability":"nonpayable"},{"type":"function","name":"renounceOwnership","inputs":[],"outputs":[],"stateMutability":"nonpayable"},{"type":"function","name":"symbol","inputs":[],"outputs":[{"name":"","type":"string","internalType":"string"}],"stateMutability":"view"},{"type":"function","name":"totalSupply","inputs":[],"outputs":[{"name":"","type":"uint256","internalType":"uint256"}],"stateMutability":"view"},{"type":"function","name":"transfer","inputs":[{"name":"to","type":"address","internalType":"address"},{"name":"value","type":"uint256","internalType":"uint256"}],"outputs":[{"name":"","type":"bool","internalType":"bool"}],"stateMutability":"nonpayable"},{"type":"function","name":"transferFrom","inputs":[{"name":"from","type":"address","internalType":"address"},{"name":"to","type":"address","internalType":"address"},{"name":"value","type":"uint256","internalType":"uint256"}],"outputs":[{"name":"","type":"bool","internalType":"bool"}],"stateMutability":"nonpayable"},{"type":"function","name":"transferOwnership","inputs":[{"name":"newOwner","type":"address","internalType":"address"}],"outputs":[],"stateMutability":"nonpayable"},{"type":"event","name":"Approval","inputs":[{"name":"owner","type":"address","indexed":true,"internalType":"address"},{"name":"spender","type":"address","indexed":true,"internalType":"address"},{"name":"value","type":"uint256","indexed":false,"internalType":"uint256"}],"anonymous":false},{"type":"event","name":"EIP712DomainChanged","inputs":[],"anonymous":false},{"type":"event","name":"OwnershipTransferred","inputs":[{"name":"previousOwner","type":"address","indexed":true,"internalType":"address"},{"name":"newOwner","type":"address","indexed":true,"internalType":"address"}],"anonymous":false},{"type":"event","name":"Transfer","inputs":[{"name":"from","type":"address","indexed":true,"internalType":"address"},{"name":"to","type":"address","indexed":true,"internalType":"address"},{"name":"value","type":"uint256","indexed":false,"internalType":"uint256"}],"anonymous":false},{"type":"error","name":"ECDSAInvalidSignature","inputs":[]},{"type":"error","name":"ECDSAInvalidSignatureLength","inputs":[{"name":"length","type":"uint256","internalType":"uint256"}]},{"type":"error","name":"ECDSAInvalidSignatureS","inputs":[{"name":"s","type":"bytes32","internalType":"bytes32"}]},{"type":"error","name":"ERC20InsufficientAllowance","inputs":[{"name":"spender","type":"address","internalType":"address"},{"name":"allowance","type":"uint256","internalType":"uint256"},{"name":"needed","type":"uint256","internalType":"uint256"}]},{"type":"error","name":"ERC20InsufficientBalance","inputs":[{"name":"sender","type":"address","internalType":"address"},{"name":"balance","type":"uint256","internalType":"uint256"},{"name":"needed","type":"uint256","internalType":"uint256"}]},{"type":"error","name":"ERC20InvalidApprover","inputs":[{"name":"approver","type":"address","internalType":"address"}]},{"type":"error","name":"ERC20InvalidReceiver","inputs":[{"name":"receiver","type":"address","internalType":"address"}]},{"type":"error","name":"ERC20InvalidSender","inputs":[{"name":"sender","type":"address","internalType":"address"}]},{"type":"error","name":"ERC20InvalidSpender","inputs":[{"name":"spender","type":"address","internalType":"address"}]},{"type":"error","name":"ERC2612ExpiredSignature","inputs":[{"name":"deadline","type":"uint256","internalType":"uint256"}]},{"type":"error","name":"ERC2612InvalidSigner","inputs":[{"name":"signer","type":"address","internalType":"address"},{"name":"owner","type":"address","internalType":"address"}]},{"type":"error","name":"InvalidAccountNonce","inputs":[{"name":"account","type":"address","internalType":"address"},{"name":"currentNonce","type":"uint256","internalType":"uint256"}]},{"type":"error","name":"InvalidShortString","inputs":[]},{"type":"error","name":"OwnableInvalidOwner","inputs":[{"name":"owner","type":"address","internalType":"address"}]},{"type":"error","name":"OwnableUnauthorizedAccount","inputs":[{"name":"account","type":"address","internalType":"address"}]},{"type":"error","name":"StringTooLong","inputs":[{"name":"str","type":"string","internalType":"string"}]}],"bytecode":{"object":"0x610160604052348015610010575f5ffd5b506040516116ea3803806116ea83398101604081905261002f91610425565b808480604051806040016040528060018152602001603160f81b8152508787816003908161005d9190610536565b50600461006a8282610536565b5061007a9150839050600561016a565b6101205261008981600661016a565b61014052815160208084019190912060e052815190820120610100524660a05261011560e05161010051604080517f8b73c3c69bb8fe3d512ecc4cf759cc79239f7b179b0ffacaa9a75d522b39400f60208201529081019290925260608201524660808201523060a08201525f9060c00160405160208183030381529060405280519060200120905090565b60805250503060c052506001600160a01b03811661014d57604051631e4fbdf760e01b81525f60048201526024015b60405180910390fd5b6101568161019c565b5061016181836101ed565b50505050610667565b5f6020835110156101855761017e83610225565b9050610196565b816101908482610536565b5060ff90505b92915050565b600880546001600160a01b038381166001600160a01b0319831681179093556040519116919082907f8be0079c531659141344cd1fd0a4f28419497f9722a3daafe3b4186f6b6457e0905f90a35050565b6001600160a01b0382166102165760405163ec442f0560e01b81525f6004820152602401610144565b6102215f8383610262565b5050565b5f5f829050601f8151111561024f578260405163305a27a960e01b815260040161014491906105f0565b805161025a82610625565b179392505050565b6001600160a01b03831661028c578060025f8282546102819190610648565b909155506102fc9050565b6001600160a01b0383165f90815260208190526040902054818110156102de5760405163391434e360e21b81526001600160a01b03851660048201526024810182905260448101839052606401610144565b6001600160a01b0384165f9081526020819052604090209082900390555b6001600160a01b03821661031857600280548290039055610336565b6001600160a01b0382165f9081526020819052604090208054820190555b816001600160a01b0316836001600160a01b03167fddf252ad1be2c89b69c2b068fc378daa952ba7f163c4a11628f55a4df523b3ef8360405161037b91815260200190565b60405180910390a3505050565b634e487b7160e01b5f52604160045260245ffd5b5f82601f8301126103ab575f5ffd5b81516001600160401b038111156103c4576103c4610388565b604051601f8201601f19908116603f011681016001600160401b03811182821017156103f2576103f2610388565b604052818152838201602001851015610409575f5ffd5b8160208501602083015e5f918101602001919091529392505050565b5f5f5f5f60808587031215610438575f5ffd5b84516001600160401b0381111561044d575f5ffd5b6104598782880161039c565b602087015190955090506001600160401b03811115610476575f5ffd5b6104828782880161039c565b60408701516060880151919550935090506001600160a01b03811681146104a7575f5ffd5b939692955090935050565b600181811c908216806104c657607f821691505b6020821081036104e457634e487b7160e01b5f52602260045260245ffd5b50919050565b601f82111561053157805f5260205f20601f840160051c8101602085101561050f5750805b601f840160051c820191505b8181101561052e575f815560010161051b565b50505b505050565b81516001600160401b0381111561054f5761054f610388565b6105638161055d84546104b2565b846104ea565b6020601f821160018114610595575f831561057e5750848201515b5f19600385901b1c1916600184901b17845561052e565b5f84815260208120601f198516915b828110156105c457878501518255602094850194600190920191016105a4565b50848210156105e157868401515f19600387901b60f8161c191681555b50505050600190811b01905550565b602081525f82518060208401528060208501604085015e5f604082850101526040601f19601f83011684010191505092915050565b805160208083015191908110156104e4575f1960209190910360031b1b16919050565b8082018082111561019657634e487b7160e01b5f52601160045260245ffd5b60805160a05160c05160e0516101005161012051610140516110326106b85f395f61087d01525f61085001525f61074701525f61071f01525f61067a01525f6106a401525f6106ce01526110325ff3fe608060405234801561000f575f5ffd5b5060043610610106575f3560e01c8063715018a61161009e57806395d89b411161006e57806395d89b4114610215578063a9059cbb1461021d578063d505accf14610230578063dd62ed3e14610243578063f2fde38b1461027b575f5ffd5b8063715018a6146101c45780637ecebe00146101cc57806384b0196e146101df5780638da5cb5b146101fa575f5ffd5b8063313ce567116100d9578063313ce567146101705780633644e5151461017f57806340c10f191461018757806370a082311461019c575f5ffd5b806306fdde031461010a578063095ea7b31461012857806318160ddd1461014b57806323b872dd1461015d575b5f5ffd5b61011261028e565b60405161011f9190610dae565b60405180910390f35b61013b610136366004610de2565b61031e565b604051901515815260200161011f565b6002545b60405190815260200161011f565b61013b61016b366004610e0a565b610337565b6040516012815260200161011f565b61014f61035a565b61019a610195366004610de2565b610368565b005b61014f6101aa366004610e44565b6001600160a01b03165f9081526020819052604090205490565b61019a61037e565b61014f6101da366004610e44565b610391565b6101e76103ae565b60405161011f9796959493929190610e5d565b6008546040516001600160a01b03909116815260200161011f565b6101126103f0565b61013b61022b366004610de2565b6103ff565b61019a61023e366004610ef3565b61040c565b61014f610251366004610f60565b6001600160a01b039182165f90815260016020908152604080832093909416825291909152205490565b61019a610289366004610e44565b610547565b60606003805461029d90610f91565b80601f01602080910402602001604051908101604052809291908181526020018280546102c990610f91565b80156103145780601f106102eb57610100808354040283529160200191610314565b820191905f5260205f20905b8154815290600101906020018083116102f757829003601f168201915b5050505050905090565b5f3361032b818585610584565b60019150505b92915050565b5f33610344858285610596565b61034f858585610611565b506001949350505050565b5f61036361066e565b905090565b610370610797565b61037a82826107c4565b5050565b610386610797565b61038f5f6107f8565b565b6001600160a01b0381165f90815260076020526040812054610331565b5f6060805f5f5f60606103bf610849565b6103c7610876565b604080515f80825260208201909252600f60f81b9b939a50919850469750309650945092509050565b60606004805461029d90610f91565b5f3361032b818585610611565b834211156104355760405163313c898160e11b8152600481018590526024015b60405180910390fd5b5f7f6e71edae12b1b97f4d1f60370fef10105fa2faae0126114a169c64845d6126c98888886104808c6001600160a01b03165f90815260076020526040902080546001810190915590565b6040805160208101969096526001600160a01b0394851690860152929091166060840152608083015260a082015260c0810186905260e0016040516020818303038152906040528051906020012090505f6104da826108a3565b90505f6104e9828787876108cf565b9050896001600160a01b0316816001600160a01b031614610530576040516325c0072360e11b81526001600160a01b0380831660048301528b16602482015260440161042c565b61053b8a8a8a610584565b50505050505050505050565b61054f610797565b6001600160a01b03811661057857604051631e4fbdf760e01b81525f600482015260240161042c565b610581816107f8565b50565b61059183838360016108fb565b505050565b6001600160a01b038381165f908152600160209081526040808320938616835292905220545f19811461060b57818110156105fd57604051637dc7a0d960e11b81526001600160a01b0384166004820152602481018290526044810183905260640161042c565b61060b84848484035f6108fb565b50505050565b6001600160a01b03831661063a57604051634b637e8f60e11b81525f600482015260240161042c565b6001600160a01b0382166106635760405163ec442f0560e01b81525f600482015260240161042c565b6105918383836109cd565b5f306001600160a01b037f0000000000000000000000000000000000000000000000000000000000000000161480156106c657507f000000000000000000000000000000000000000000000000000000000000000046145b156106f057507f000000000000000000000000000000000000000000000000000000000000000090565b610363604080517f8b73c3c69bb8fe3d512ecc4cf759cc79239f7b179b0ffacaa9a75d522b39400f60208201527f0000000000000000000000000000000000000000000000000000000000000000918101919091527f000000000000000000000000000000000000000000000000000000000000000060608201524660808201523060a08201525f9060c00160405160208183030381529060405280519060200120905090565b6008546001600160a01b0316331461038f5760405163118cdaa760e01b815233600482015260240161042c565b6001600160a01b0382166107ed5760405163ec442f0560e01b81525f600482015260240161042c565b61037a5f83836109cd565b600880546001600160a01b038381166001600160a01b0319831681179093556040519116919082907f8be0079c531659141344cd1fd0a4f28419497f9722a3daafe3b4186f6b6457e0905f90a35050565b60606103637f00000000000000000000000000000000000000000000000000000000000000006005610af3565b60606103637f00000000000000000000000000000000000000000000000000000000000000006006610af3565b5f6103316108af61066e565b8360405161190160f01b8152600281019290925260228201526042902090565b5f5f5f5f6108df88888888610b9c565b9250925092506108ef8282610c64565b50909695505050505050565b6001600160a01b0384166109245760405163e602df0560e01b81525f600482015260240161042c565b6001600160a01b03831661094d57604051634a1406b160e11b81525f600482015260240161042c565b6001600160a01b038085165f908152600160209081526040808320938716835292905220829055801561060b57826001600160a01b0316846001600160a01b03167f8c5be1e5ebec7d5bd14f71427d1e84f3dd0314c0f7b2291e5b200ac8c7c3b925846040516109bf91815260200190565b60405180910390a350505050565b6001600160a01b0383166109f7578060025f8282546109ec9190610fc9565b90915550610a679050565b6001600160a01b0383165f9081526020819052604090205481811015610a495760405163391434e360e21b81526001600160a01b0385166004820152602481018290526044810183905260640161042c565b6001600160a01b0384165f9081526020819052604090209082900390555b6001600160a01b038216610a8357600280548290039055610aa1565b6001600160a01b0382165f9081526020819052604090208054820190555b816001600160a01b0316836001600160a01b03167fddf252ad1be2c89b69c2b068fc378daa952ba7f163c4a11628f55a4df523b3ef83604051610ae691815260200190565b60405180910390a3505050565b606060ff8314610b0d57610b0683610d1c565b9050610331565b818054610b1990610f91565b80601f0160208091040260200160405190810160405280929190818152602001828054610b4590610f91565b8015610b905780601f10610b6757610100808354040283529160200191610b90565b820191905f5260205f20905b815481529060010190602001808311610b7357829003601f168201915b50505050509050610331565b5f80807f7fffffffffffffffffffffffffffffff5d576e7357a4501ddfe92f46681b20a0841115610bd557505f91506003905082610c5a565b604080515f808252602082018084528a905260ff891692820192909252606081018790526080810186905260019060a0016020604051602081039080840390855afa158015610c26573d5f5f3e3d5ffd5b5050604051601f1901519150506001600160a01b038116610c5157505f925060019150829050610c5a565b92505f91508190505b9450945094915050565b5f826003811115610c7757610c77610fe8565b03610c80575050565b6001826003811115610c9457610c94610fe8565b03610cb25760405163f645eedf60e01b815260040160405180910390fd5b6002826003811115610cc657610cc6610fe8565b03610ce75760405163fce698f760e01b81526004810182905260240161042c565b6003826003811115610cfb57610cfb610fe8565b0361037a576040516335e2f38360e21b81526004810182905260240161042c565b60605f610d2883610d59565b6040805160208082528183019092529192505f91906020820181803683375050509182525060208101929092525090565b5f60ff8216601f81111561033157604051632cd44ac360e21b815260040160405180910390fd5b5f81518084528060208401602086015e5f602082860101526020601f19601f83011685010191505092915050565b602081525f610dc06020830184610d80565b9392505050565b80356001600160a01b0381168114610ddd575f5ffd5b919050565b5f5f60408385031215610df3575f5ffd5b610dfc83610dc7565b946020939093013593505050565b5f5f5f60608486031215610e1c575f5ffd5b610e2584610dc7565b9250610e3360208501610dc7565b929592945050506040919091013590565b5f60208284031215610e54575f5ffd5b610dc082610dc7565b60ff60f81b8816815260e060208201525f610e7b60e0830189610d80565b8281036040840152610e8d8189610d80565b606084018890526001600160a01b038716608085015260a0840186905283810360c0850152845180825260208087019350909101905f5b81811015610ee2578351835260209384019390920191600101610ec4565b50909b9a5050505050505050505050565b5f5f5f5f5f5f5f60e0888a031215610f09575f5ffd5b610f1288610dc7565b9650610f2060208901610dc7565b95506040880135945060608801359350608088013560ff81168114610f43575f5ffd5b9699959850939692959460a0840135945060c09093013592915050565b5f5f60408385031215610f71575f5ffd5b610f7a83610dc7565b9150610f8860208401610dc7565b90509250929050565b600181811c90821680610fa557607f821691505b602082108103610fc357634e487b7160e01b5f52602260045260245ffd5b50919050565b8082018082111561033157634e487b7160e01b5f52601160045260245ffd5b634e487b7160e01b5f52602160045260245ffdfea26469706673582212202f8c544dcdc347e246ca94a1723182ec390741c4387e4eb509a2977151ed9ada64736f6c634300081e0033","linkReferences":{}},"methodIdentifiers":{"DOMAIN_SEPARATOR()":"3644e515","allowance(address,address)":"dd62ed3e","approve(address,uint256)":"095ea7b3","balanceOf(address)":"70a08231","decimals()":"313ce567","eip712Domain()":"84b0196e","mint(address,uint256)":"40c10f19","name()":"06fdde03","nonces(address)":"7ecebe00","owner()":"8da5cb5b","permit(address,address,uint256,uint256,uint8,bytes32,bytes32)":"d505accf","renounceOwnership()":"715018a6","symbol()":"95d89b41","totalSupply()":"18160ddd","transfer(address,uint256)":"a9059cbb","transferFrom(address,address,uint256)":"23b872dd","transferOwnership(address)":"f2fde38b"},"id":1}